:100000000C9462000C948A000C948A000C948A0070
:100010000C948A000C948A000C948A000C948A0038
:100020000C948A000C948A000C948A000C948A0028
:100030000C948A000C948A000C948A000C948A0018
:100040000C94B2030C948A000C9422040C94FC03CC
:100050000C948A000C948A000C948A000C948A00F8
:100060000C948A000C948A000000000023002600F3
:10007000290000000000240027002A0000000000E2
:10008000250028002B0004040404040404040202D4
:100090000202020203030303030301020408102007
:1000A0004080010204081020010204081020000012
:1000B0000008000201000003040700000000000027
:1000C0000000B60511241FBECFEFD8E0DEBFCDBFC4
:1000D00011E0A0E0B1E0ECE9F0E102C005900D9282
:1000E000AA34B107D9F721E0AAE4B1E001C01D921A
:1000F000AD3FB207E1F710E0C2E6D0E004C02197BF
:10010000FE010E944108C136D107C9F70E9454047C
:100110000C944C080C940000E6ECF0E09491E2EBB7
:10012000F0E02491EEE9F0E0E491EE2309F43CC024
:10013000992339F1933091F038F49130A9F092304D
:1001400001F594B59F7D12C0973091F09830A1F0E1
:100150009430B9F4909180009F7D03C0909180000D
:100160009F77909380000DC094B59F7794BD09C090
:100170009091B0009F7703C09091B0009F7D9093C5
:10018000B000F0E0EE0FFF1FE458FF4FA591B491CF
:100190009FB7F894811104C08C912095282302C048
:1001A000EC912E2B2C939FBF0895CF93DF93E2EB1E
:1001B000F0E09491EEE9F0E02491222361F130E047
:1001C000220F331FF901EE58FF4FA591B491F901A9
:1001D000E458FF4FC591D491811109C02FB7F8940D
:1001E0008C91909589238C93E8819E230BC082305B
:1001F00061F42FB7F8948C91392F309583238C9329
:10020000E8819E2B98832FBF06C08FB7F894EC919E
:100210009E2B9C938FBFDF91CF9108953FB7F894A9
:1002200080915C0190915D01A0915E01B0915F01B0
:1002300026B5A89B05C02F3F19F00196A11DB11D41
:100240003FBFBA2FA92F982F8827820F911DA11D7C
:10025000B11DBC01CD0142E0660F771F881F991FB9
:100260004A95D1F708958F929F92AF92BF92CF9205
:10027000DF92EF92FF926B017C010E940E014B0115
:100280005C01C114D104E104F104F1F00E940E01FB
:10029000DC01CB0188199909AA09BB09883E934062
:1002A000A105B10570F321E0C21AD108E108F108F7
:1002B00088EE880E83E0981EA11CB11CC114D104E5
:1002C000E104F10419F7DDCFFF90EF90DF90CF90BC
:1002D000BF90AF909F908F900895CF92DF92EF9252
:1002E000FF920F931F93CF93DF936C017A018B01E1
:1002F000C0E0D0E0CE15DF0581F0D8016D918D0111
:10030000D601ED91FC910190F081E02DC601099597
:10031000892B11F02196EECF7E01C701DF91CF919D
:100320001F910F91FF90EF90DF90CF900895089567
:1003300080E090E00895FC01538D448D252F30E03E
:10034000842F90E0821B930B541710F0CF960895E2
:1003500001970895FC01918D828D981761F0828D2F
:10036000DF01A80FB11D5D968C91928D9F5F9F73E9
:10037000928F90E008958FEF9FEF0895FC01918D8B
:10038000828D981731F0828DE80FF11D858D90E0F8
:1003900008958FEF9FEF0895FC01918D228D892F95
:1003A00090E0805C9F4F821B91098F73992708957D
:1003B00080E691E00E94CC0121E0892B09F420E045
:1003C000822F0895FC01848DDF01A80FB11DA35A6F
:1003D000BF4F2C91848D90E001968F739927848F65
:1003E000A689B7892C93A089B1898C918370806488
:1003F0008C93938D848D981306C00288F389E02D29
:1004000080818F7D80830895EF92FF920F931F93D9
:10041000CF93DF93EC0181E0888F9B8D8C8D9813B7
:1004200005C0E889F989808185FD26C0F62E0B8DEF
:1004300010E00F5F1F4F0F731127E02E8C8DE81215
:100440000CC00FB607FCFACFE889F989808185FFD7
:10045000F5CFCE010E94E201F1CF8B8DFE01E80FB6
:10046000F11DE35AFF4FF0829FB7F8940B8FEA8992
:10047000FB89808180620AC09FB7F894EE89FF896A
:100480006083E889F98980818370806480839FBF5D
:1004900081E090E0DF91CF911F910F91FF90EF905D
:1004A0000895CF93DF93EC01888D8823C9F0EA8902
:1004B000FB89808185FD05C0A889B9898C9186FD5D
:1004C0000FC00FB607FCF5CF808185FFF2CFA8895A
:1004D000B9898C9185FFEDCFCE010E94E201E7CF73
:1004E000DF91CF91089580E090E0892B29F00E9460
:1004F000D80181110C9400000895009769F0FC0167
:1005000001900020E9F73197AF01481B590BBC015E
:1005100080E691E00C946D0180E090E008952F92C8
:100520003F924F925F926F927F928F929F92AF9283
:10053000BF92CF92DF92EF92FF920F931F93CF93D0
:10054000DF93CDB7DEB7A4970FB6F894DEBF0FBE2A
:10055000CDBF4B015C01F42E9B01AC010E943C0815
:10056000882319F082E191E027C024013501E89445
:1005700077F82FEF3FEF4FE75FE7C301B2010E942B
:100580003C0881110DC02FEF3FEF4FE75FE7C3013C
:10059000B2010E94720618161CF486E191E00CC0AC
:1005A0002FEF3FEF4FE75FE4C501B4010E94CA0798
:1005B00018162CF48AE191E00E947D02B8C02FEF5A
:1005C0003FEF4FE75FECC501B4010E94720687FD63
:1005D000F1CF20E030E0A901C501B4010E9472060C
:1005E00087FF0BC06DE280E691E00E9404023C01AF
:1005F000B7FAB094B7F8B09402C0612C712C10E037
:1006000060E070E080E09FE3F11641F020E030E030
:1006100040E251E40E9477061F5FF6CFA5019401E6
:100620000E9406064B015C010E94E9066AA3C72EE0
:10063000D82EE92E19A2262F372F482F592F8E0199
:100640000F5D1F4F0BA31CA39AE0292E312C412CC8
:10065000512CCA01B901A20191010E94E305605D1C
:10066000F80162938F01211531054105510589F784
:10067000CF010E947D028301080F191FFF2009F49A
:1006800055C06AA17C2D8D2D9E2D0E9418079B01BF
:10069000AC01C501B4010E9405064B015C016EE28C
:1006A00080E691E00E940402080F191F8AE0282EBC
:1006B000312C412C512C20E030E040E251E4C501C6
:1006C000B4010E94CF074B015C010E94E9069B0127
:1006D00040E050E019A2CBA0DCA0762E3AA3642E15
:1006E000E52ECA01B901A20191010E94E305605DF6
:1006F000F60162936F01211531054105510589F716
:10070000CF010E947D02080F191F672D7AA1862D47
:100710009E2D0E9418079B01AC01C501B4010E94E7
:1007200005064B015C01FA94F110C5CFC801A496EF
:100730000FB6F894DEBF0FBECDBFDF91CF911F91F2
:100740000F91FF90EF90DF90CF90BF90AF909F9070
:100750008F907F906F905F904F903F902F90089573
:100760000E9447081F920F920FB60F9211242F93E9
:100770003F938F939F93AF93BF9380915801909134
:100780005901A0915A01B0915B013091570123E0CA
:10079000230F2D3720F40196A11DB11D05C026E8B9
:1007A000230F0296A11DB11D20935701809358017C
:1007B00090935901A0935A01B0935B0180915C0121
:1007C00090915D01A0915E01B0915F010196A11D24
:1007D000B11D80935C0190935D01A0935E01B09385
:1007E0005F01BF91AF919F918F913F912F910F909A
:1007F0000FBE0F901F9018951F920F920FB60F9279
:1008000011242F933F934F935F936F937F938F9315
:100810009F93AF93BF93EF93FF9380E691E00E9485
:10082000E201FF91EF91BF91AF919F918F917F91E5
:100830006F915F914F913F912F910F900FBE0F904D
:100840001F9018951F920F920FB60F9211242F939D
:100850008F939F93EF93FF93E0917001F09171015B
:100860008081E0917601F091770182FD12C0908144
:10087000809179018F5F8F7320917A01821751F0F7
:10088000E0917901F0E0E05AFE4F958F8093790175
:1008900001C08081FF91EF919F918F912F910F90D7
:1008A0000FBE0F901F901895789484B5826084BD18
:1008B00084B5816084BD85B5826085BD85B5816064
:1008C00085BD80916E00816080936E0010928100E2
:1008D000809181008260809381008091810081609D
:1008E000809381008091800081608093800080915E
:1008F000B10084608093B1008091B00081608093EA
:10090000B00080917A00846080937A0080917A00B0
:10091000826080937A0080917A00816080937A006F
:1009200080917A00806880937A001092C100E091F3
:100930007001F091710182E08083E0916C01F0918F
:100940006D011082E0916E01F0916F018CE0808367
:1009500010927801E0917401F091750186E0808336
:10096000E0917201F0917301808180618083E09158
:100970007201F0917301808188608083E09172013F
:10098000F0917301808180688083E0917201F09121
:10099000730180818F7D80832EE9222E20E0322E0C
:1009A000412C30EC532E39E7632E34EC732EE2EBFE
:1009B000F0E0D491F1018491E82FF0E0EE0FFF1FF9
:1009C000E859FF4F05911491109252011092530172
:1009D00010925401109255011092560181E00E942C
:1009E000D50080E00E948C0062E170E080E090E041
:1009F0000E94330181E00E948C008BE990E0019716
:100A0000F1F780E00E94D50080E991E0F8012081B3
:100A10002D2319F40197D1F798C080E991E0F801EE
:100A200020812D2319F00197D1F78FC088E2D82EAD
:100A3000C0E8C12C80E991E0F80120812D2319F450
:100A40000197D1F782C00E940E014B015C0180E941
:100A500091E0F80120812D2319F00197D1F775C09D
:100A60000E940E01DC01CB0188199909AA09BB0972
:100A70008997A105B10538F0EC2DF0E0E65BFE4F5B
:100A800080858C2B8087C69511F4C394C0E8DA94D6
:100A9000D110D0CF81E00E94D50081E00E948C006F
:100AA0006091520170E080E090E00E94180760932E
:100AB0004A0170934B0180934C0190934D016091DA
:100AC000540170E080E090E00E94180760934E01AE
:100AD00070934F018093500190935101C0904E014B
:100AE000D0904F01E0905001F090510180904A0168
:100AF00090904B01A0904C01B0904D018EE191E09F
:100B00000E947D0242E0C701B6010E948F028DE281
:100B100091E00E947D0282E391E00E947D0242E02A
:100B2000C501B4010E948F0282E491E00E947D021F
:100B300086E491E00E947D026DE770E080E090E045
:100B40000E9433010E94730232CF40924A015092B8
:100B50004B0160924C0170924D0140924E015092B7
:100B60004F016092500170925101B8CFE0E6F1E080
:100B70001382128288EE93E0A0E0B0E08483958334
:100B8000A683B78384E091E09183808385EC90E035
:100B90009587848784EC90E09787868780EC90E047
:100BA000918B808B81EC90E0938B828B82EC90E038
:100BB000958B848B86EC90E0978B868B118E128EB2
:100BC000138E148E0895A1E21A2EAA1BBB1BFD01E1
:100BD0000DC0AA1FBB1FEE1FFF1FA217B307E4071C
:100BE000F50720F0A21BB30BE40BF50B661F771F74
:100BF000881F991F1A9469F7609570958095909554
:100C00009B01AC01BD01CF0108955058BB27AA2715
:100C10000E941D060C9490070E94820738F00E94E3
:100C2000890720F039F49F3F19F426F40C947F07CC
:100C30000EF4E095E7FB0C947907E92F0E94A107D9
:100C400058F3BA17620773078407950720F079F401
:100C5000A6F50C94C3070EF4E0950B2EBA2FA02D29
:100C60000B01B90190010C01CA01A0011124FF2759
:100C7000591B99F0593F50F4503E68F11A16F04054
:100C8000A22F232F342F4427585FF3CF4695379553
:100C90002795A795F0405395C9F77EF41F16BA0B18
:100CA000620B730B840BBAF09150A1F0FF0FBB1FC6
:100CB000661F771F881FC2F70EC0BA0F621F731F0F
:100CC000841F48F4879577956795B795F7959E3F6C
:100CD00008F0B0CF9395880F08F09927EE0F9795FD
:100CE000879508950E94550708F481E008950E94B1
:100CF0008B060C9490070E94890758F00E94820787
:100D000040F029F45F3F29F00C94790751110C94BD
:100D1000C4070C947F070E94A10768F39923B1F3DD
:100D2000552391F3951B550BBB27AA276217730711
:100D3000840738F09F5F5F4F220F331F441FAA1FA5
:100D4000A9F335D00E2E3AF0E0E832D09150504061
:100D5000E695001CCAF72BD0FE2F29D0660F771F0F
:100D6000881FBB1F261737074807AB07B0E809F0F5
:100D7000BB0B802DBF01FF2793585F4F3AF09E3F7A
:100D8000510578F00C9479070C94C4075F3FE4F3A5
:100D9000983ED4F3869577956795B795F7959F5FBD
:100DA000C9F7880F911D9695879597F90895E1E009
:100DB000660F771F881FBB1F621773078407BA0768
:100DC00020F0621B730B840BBA0BEE1F88F7E095C3
:100DD00008950E94A90788F09F5798F0B92F992786
:100DE000B751B0F0E1F0660F771F881F991F1AF016
:100DF000BA95C9F714C0B13091F00E94C307B1E0B1
:100E000008950C94C307672F782F8827B85F39F0AF
:100E1000B93FCCF3869577956795B395D9F73EF4AE
:100E200090958095709561957F4F8F4F9F4F089556
:100E3000E89409C097FB3EF4909580957095619574
:100E40007F4F8F4F9F4F9923A9F0F92F96E9BB272A
:100E50009395F695879577956795B795F111F8CFA6
:100E6000FAF4BB0F11F460FF1BC06F5F7F4F8F4F11
:100E70009F4F16C0882311F096E911C0772321F007
:100E80009EE8872F762F05C0662371F096E8862F9F
:100E900070E060E02AF09A95660F771F881FDAF7F6
:100EA000880F9695879597F90895990F0008550F23
:100EB000AA0BE0E8FEEF16161706E807F907C0F0E0
:100EC00012161306E407F50798F0621B730B840BE8
:100ED000950B39F40A2661F0232B242B252B21F4C2
:100EE00008950A2609F4A140A6958FEF811D811D62
:100EF000089597F99F6780E870E060E008959FEF9C
:100F000080EC089500240A941616170618060906A0
:100F1000089500240A94121613061406050608956F
:100F2000092E0394000C11F4882352F0BB0F40F4F7
:100F3000BF2B11F460FF04C06F5F7F4F8F4F9F4F37
:100F4000089557FD9058440F551F59F05F3F71F0B9
:100F50004795880F97FB991F61F09F3F79F0879520
:100F60000895121613061406551FF2CF4695F1DFA9
:100F700008C0161617061806991FF1CF8695710539
:100F8000610508940895E894BB2766277727CB016D
:100F900097F908950E94550708F48FEF08950E946D
:100FA000E2070C9490070E94820738F00E9489079C
:100FB00020F0952311F00C9479070C947F071124ED
:100FC0000C94C4070E94A10770F3959FC1F3950F7D
:100FD00050E0551F629FF001729FBB27F00DB11DBD
:100FE000639FAA27F00DB11DAA1F649F6627B00D4D
:100FF000A11D661F829F2227B00DA11D621F739F36
:10100000B00DA11D621F839FA00D611D221F749F43
:101010003327A00D611D231F849F600D211D822F8A
:10102000762F6A2F11249F5750409AF0F1F08823B1
:101030004AF0EE0FFF1FBB1F661F771F881F9150DE
:101040005040A9F79E3F510580F00C9479070C940D
:10105000C4075F3FE4F3983ED4F386957795679590
:10106000B795F795E7959F5FC1F7FE2B880F911D08
:101070009695879597F908950E945507880B990BC7
:101080000895EE0FFF1F0590F491E02D099481E083
:0C10900090E0F8940C944C08F894FFCF0A
:10109C000000000004026D019B015102CC01AA0169
:1010AC00BE016E616E00696E66006F7666005465F7
:1010BC006D7065726174757265203D2000202A4345
:1010CC0020002020202048756D6964697479203DCA
:0A10DC002000202520000D0A00006E
:107E0000112484B714BE81FFF0D085E080938100F7
:107E100082E08093C00088E18093C10086E0809377
:107E2000C20080E18093C4008EE0C9D0259A86E02C
:107E300020E33CEF91E0309385002093840096BBD3
:107E4000B09BFECF1D9AA8958150A9F7CC24DD24C4
:107E500088248394B5E0AB2EA1E19A2EF3E0BF2EE7
:107E6000A2D0813461F49FD0082FAFD0023811F036
:107E7000013811F484E001C083E08DD089C08234E0
:107E800011F484E103C0853419F485E0A6D080C0E4
:107E9000853579F488D0E82EFF2485D0082F10E0AE
:107EA000102F00270E291F29000F111F8ED06801E7
:107EB0006FC0863521F484E090D080E0DECF843638
:107EC00009F040C070D06FD0082F6DD080E0C81688
:107ED00080E7D80618F4F601B7BEE895C0E0D1E017
:107EE00062D089930C17E1F7F0E0CF16F0E7DF06D8
:107EF00018F0F601B7BEE89568D007B600FCFDCFD4
:107F0000A601A0E0B1E02C9130E011968C91119780
:107F100090E0982F8827822B932B1296FA010C0160
:107F200087BEE89511244E5F5F4FF1E0A038BF0790
:107F300051F7F601A7BEE89507B600FCFDCF97BE46
:107F4000E89526C08437B1F42ED02DD0F82E2BD052
:107F50003CD0F601EF2C8F010F5F1F4F84911BD097
:107F6000EA94F801C1F70894C11CD11CFA94CF0C13
:107F7000D11C0EC0853739F428D08EE10CD085E9AC
:107F80000AD08FE07ACF813511F488E018D01DD067
:107F900080E101D065CF982F8091C00085FFFCCF94
:107FA0009093C60008958091C00087FFFCCF809118
:107FB000C00084FD01C0A8958091C6000895E0E648
:107FC000F0E098E1908380830895EDDF803219F02E
:107FD00088E0F5DFFFCF84E1DECF1F93182FE3DFCA
:107FE0001150E9F7F2DF1F91089580E0E8DFEE27F6
:047FF000FF270994CA
:027FFE00040479
:0400000300007E007B
:00000001FF
